:1030000000600010CD300000293100002B3100009D
:103010002D3100002F310000313100000000000090
:103020000000000000000000000000009D310000D2
:103030009F31000000000000A1310000A33100001A
:10304000E5AD0000E9B30000A5310000E5B90000DE
:1030500089BC0000F9600000891D0100A531000055
:10306000A5310000A5310000A5310000A531000008
:10307000A5310000A5310000A5310000A5310000F8
:10308000A5310000A5310000A5310000A5310000E8
:10309000A5310000A531000091FF0000A53100001E
:1030A000F55A0000A5310000A5310000A53100004F
:1030B000A5310000A5310000A5310000A5310000B8
:1030C000A5310000A53100005D1F01000D488047BB
:1030D0000D490E4A0E4B9A423EBF51F8040B42F87E
:1030E000040BF8E700200B490B4A91423CBF41F822
:1030F000040BFAE709488047094880470948004718
:10310000FEE70000455C000088C6020000000010D9
:10311000B0050010B0050010D03B001095EF010085
:10312000495D000015AF0000FEE7FEE7FEE7FEE7A1
:10313000FEE700BF10B540F2B054C1F2000423789E
:1031400063B940F20000C0F2000028B14CF2E83050
:10315000C0F20200AFF300800121217010BD00BF5A
:1031600008B540F20003C0F200034BB14CF2E83066
:1031700040F2B451C0F20200C1F20001AFF300808E
:1031800040F20000C1F20000016829B140F20003E2
:10319000C0F2000303B1984708BD00BFFEE7FEE799
:1031A000FEE7FEE7FEE7000038B504460D464FF4A3
:1031B0008043C4F20303984207D045F64C70C0F236
:1031C00002004FF0420100F0ABF905F1FF3240F68A
:1031D0003F53C0F203039A4207D945F64C70C0F240
:1031E00002004FF0430100F09BF94FF480504FF084
:1031F000010100F021F94FF0000323604FF01800A7
:1032000000F004F94FEA85135D19B0FBF5F505F1FF
:10321000FF354FEA052545F40015256038BD00BF90
:1032200038B504460D464FF48043C4F20303984278
:1032300007D045F64C70C0F202004FF08B0100F051
:103240006FF9072D07D945F64C70C0F202004FF018
:103250008C0100F065F9236823F0E06323602368A4
:1032600043EA0565256038BD70B504460D4616462F
:103270004FF48043C4F20303984207D045F64C70E4
:10328000C0F202004FF0DA0100F04AF9082D07D928
:1032900045F64C70C0F202004FF0DB0100F040F93F
:1032A000E3684FF0010202FA05F523EA0503E36043
:1032B00016B1E3681D43E56070BD00BF70B50446FC
:1032C0000E4615464FF48043C4F20303984207D0DC
:1032D00045F64C70C0F202004FF0ED0100F020F90D
:1032E000012D23684FF0010202FA06F60CBF1E43BF
:1032F00023EA0606266070BD38B504460D464FF435
:103300008043C4F20303984207D045F64C70C0F2E4
:10331000020040F2011100F003F904F1100454F826
:103320002500C0F30B1038BD70B505460E46144697
:103330004FF48043C4F20303984207D045F64C7023
:10334000C0F2020040F2151100F0EAF8012C07D992
:1033500045F64C70C0F2020040F2171100F0E0F8A0
:1033600005F1100555F8260014B100F0004001E009
:1033700000F08040003018BF012070BD10B41F283D
:1033800017D94FF44043C4F20F03D3F8AC41A0F176
:1033900020004FF0030202FA00F224EA0202C3F80E
:1033A000AC21D3F8AC2101FA00F01043C3F8AC0112
:1033B00014E04FF44043C4F20F03D3F8A8414FF098
:1033C000030202FA00F224EA0202C3F8A821D3F8A9
:1033D000A82101FA00F11143C3F8A81110BC7047ED
:1033E0001F289DBF4FF44043C4F20F03D3F8A83108
:1033F000203882BF4FF44043C4F20F03D3F8AC31FE
:1034000023FA00F000F00300704700BF10B540F24F
:103410001403C1F200031C68FFF7E2FF032808D879
:10342000DFE800F0050707024FF0080001E04FF069
:103430000400B4FBF0F010BD01290ED14FF440425E
:10344000C4F20F02D2F8C4104FF2DE73CEF6EF735F
:1034500003400B43C2F8C430704771B94FF4404287
:10346000C4F20F02D2F8C4104FF2DE73CEF6EF733F
:103470000B4023EA0000C2F8C4007047042804D8B7
:10348000DFE800F01A060B1015004FF0000070473F
:103490004CF22000C2F2090070474CF24000C2F228
:1034A000090070474CF26000C2F2090070474CF20C
:1034B0008000C2F2090070474FF44040C2F2090098
:1034C000704700BF38B50C461546FFF7D7FF40B12F
:1034D0001DB102681443046038BD026822EA040486
:1034E000046038BD10B50C46FFF7C8FF00B1846119
:1034F00010BD00BF10B50C46FFF7C0FF00B1C4619E
:1035000010BD00BF08B5FFF7B9FF08B1406908BD9D
:103510004FF0000008BD00BF08B5FFF7F3FF08BD7E
:10352000FEE700BF70B48478437802784FEA420225
:103530000F2B84BF103B01324FEA820202F180421E
:1035400002F530324FEA43034FF0030101FA03F171
:10355000156825EA010104FA03F30B431360C578EB
:10356000427803784FEA43030F2A84BF103A0133AD
:103570004CF24001C4F202014FEA42024FF0030450
:1035800004FA02F451F8236026EA040405FA02F270
:10359000224341F82320027841780379012B4CF231
:1035A0006803C4F202034FF0010000FA01F153F87E
:1035B00022000CBF014320EA010143F8221070BC35
:1035C000704700BF70B505460C4616464FF4804361
:1035D000C4F20203984207D045F68470C0F202009C
:1035E00040F2DD21FFF79CFF042C07D945F68470DB
:1035F000C0F2020040F2DE21FFF792FF05F1440520
:1036000045F8246070BD00BF10B50C464FF00003B4
:10361000C4F20203984208D045F6BC70C0F2020022
:103620004FF04001FFF77CFF10BD4FF01000FFF797
:10363000EDFE4FEA44024FEAC4044FF00803A042F3
:1036400004D903F10203A418FE2BF8D1DBB24FF02A
:103650000002C4F20202D36010BD00BF10B50446E0
:103660004FF00003C4F20203984207D045F6BC7045
:10367000C0F202004FF07101FFF752FF2068C0F363
:10368000032010BD38B50C464FF00003C4F202030E
:10369000984208D045F6BC70C0F202004FF082019B
:1036A000FFF73EFF38BD4FF480704FF00101FFF788
:1036B000C3FEA26863681A4323691A4323681A4346
:1036C000E3681A4340F6F873134043F004034FF0E5
:1036D0000005C4F202052B6028466169FFF794FFDC
:1036E000EB6913F0010F1FBF0023C4F20203012294
:1036F000DA6138BD38B504460D464FF00003C4F218
:103700000203984207D045F6BC70C0F202004FF0A9
:10371000BC01FFF705FFA56038BD00BF10B504462A
:103720004FF00003C4F20203984207D045F6BC7084
:10373000C0F202004FF0CA01FFF7F2FEA06880B2AB
:1037400010BD00BF38B504460D464FF00003C4F26B
:103750000203984207D045F6BC70C0F202004FF455
:10376000AE71FFF7DDFE012D07D945F6BC70C0F242
:10377000020040F25D11FFF7D3FE012D07BF236861
:1037800043F08003226840F67C7318BF1340236027
:1037900038BD00BF2DE9F04F83B006460D460192BB
:1037A000836843684FF00003CB600B61FFF756FF5F
:1037B000B0F1080718BF0127019B002B4FD127B993
:1037C000D5F804B0D5F8009041E0D5F804A0D5F8BC
:1037D00000803CE02B6863B92FB930464FF0FF0101
:1037E000FFF788FF11E030464FF6FF71FFF782FFC9
:1037F0000BE02FB9304619F8011BFFF77BFF04E0FF
:10380000304638F8021BFFF775FF746814F0800F1C
:10381000FBD014F0780F04D044F400742C61E868F5
:103820004CE03046FFF77AFF6B6833B117B90BF8FD
:10383000010B03E02AF8020B05E027B9EB6803F15E
:103840000103EB6003E0EB6803F10203EB60E8685F
:10385000AB689842BED344F480742C612EE0F369C7
:1038600013F0010F1CBF0123F361EA68AB689A42B1
:1038700022BF4FF480732B6100201FD22B6863B9E5
:103880002FB930464FF0FF01FFF734FF0FE030460D
:103890004FF6FF71FFF72EFF09E027B93046197880
:1038A000FFF728FF03E030461988FFF723FF304673
:1038B0004FF00101FFF746FF4FF0000003B0BDE8F5
:1038C000F08F00BF38B504460D464FF40043C4F2F4
:1038D0000003C31A18BF0123B0F1402F0CBF00230F
:1038E00003F00103C3B14FF00003C4F209034FF426
:1038F0008042C4F20902821A18BF012298420CBF0A
:10390000002302F001033BB145F6F470C0F202005F
:103910004FF0DD01FFF704FE052D07D945F6F470E1
:10392000C0F202004FF0DE01FFF7FAFD4FF0010395
:1039300003FA05F5256038BDF8B504460D46164670
:103940004FF40043C4F20003C31A18BF0123B0F1BF
:10395000402F0CBF002303F00103C3B14FF000035D
:10396000C4F209034FF48042C4F20902821A18BF5C
:10397000012298420CBF002302F001033BB145F63F
:10398000F470C0F2020040F22B11FFF7C9FD012DC7
:1039900007D945F6F470C0F202004FF49671FFF7B4
:1039A000BFFDB4F1402F0CD14FF002004FF00101E8
:1039B000FFF742FD4FF002004FF00001FFF7DEFC81
:1039C00037E04FF40043C4F200039C420CD14FF0A7
:1039D00004004FF00101FFF72FFD4FF004004FF0FE
:1039E0000001FFF7CBFC24E04FF00003C4F2090311
:1039F0009C420CD14FF480004FF00101FFF71CFDF9
:103A00004FF02C004FF00001FFF7B8FC11E04FF42D
:103A10008043C4F209039C420BD14FF400004FF0E5
:103A20000101FFF709FD4FF02E004FF00001FFF7F5
:103A3000A5FCA36A23F00303A362A36AA3624FF069
:103A40000003A3602361E360636843F002036360E3
:103A5000636823F002036360002D32D1337823B909
:103A6000736803F1FF33E36036E0B4F1402F14D004
:103A70004FF40043C4F200039C4231D04FF00003E6
:103A8000C4F209039C4232D04FF48043C4F20903CC
:103A90009C4218BF756806D130E075684FF002008F
:103AA000FFF7B4FC0746A5FB070144F24022C0F231
:103AB0000F024FF000030FF02FFA00F1FF30E0602B
:103AC0000AE0A36A23F00C03A3627378012B02BF00
:103AD000A36A43F00403A3624FF0FF332360F8BDF1
:103AE00075684FF00400FFF791FC0746DBE7756847
:103AF0004FF02C00FFF78AFC0746D4E775684FF0BB
:103B00002E00FFF783FC0746CDE700BF38B504461B
:103B10000D464FF40043C4F20003C31A18BF01233B
:103B2000B0F1402F0CBF002303F00103C3B14FF0ED
:103B30000003C4F209034FF48042C4F20902821A5E
:103B400018BF012298420CBF002302F001033BB1D1
:103B500045F6F470C0F202004FF4CD71FFF7E0FCBF
:103B6000012D63680CBF43F0010323F00103636080
:103B700038BD00BF38B504460D464FF40043C4F2CB
:103B80000003C31A18BF0123B0F1402F0CBF00235C
:103B900003F00103C3B14FF00003C4F209034FF473
:103BA0008042C4F20902821A18BF012298420CBF57
:103BB000002302F001033BB145F6F470C0F20200AD
:103BC00040F2D111FFF7ACFC2B79032B07D945F656
:103BD000F470C0F202004FF4E971FFF7A1FC2B78FA
:103BE000032B0FD8DFE803F00205080BAB68A361D5
:103BF00009E0AB68E36106E0AB68236203E0AB6811
:103C0000636200E0FEE762692B7803EB43034FF049
:103C1000070101FA03F322EA030363616B784BB1F6
:103C200062692B7803EB43034FF0010101FA03F3C0
:103C300013436361EB785BB162692B7803EB430359
:103C400003F101034FF0010101FA03F31343636130
:103C5000AB785BB162692B7803EB430303F102039A
:103C60004FF0010101FA03F313436361E36B2A7818
:103C70004FEA420202F104024FF0030101FA02F29C
:103C800023EA0203E363E36B297901F003012A7855
:103C90004FEA420202F1040201FA02F21343E36323
:103CA00038BD00BF70B504460E4615464FF40043BC
:103CB000C4F20003C31A18BF0123B0F1402F0CBF98
:103CC000002303F00103C3B14FF00003C4F2090362
:103CD0004FF48042C4F20902821A18BF01229842AE
:103CE0000CBF002302F001033BB145F6F470C0F2B3
:103CF000020040F20721FFF713FC032E0BD8DFE888
:103D000006F002040608A56170BDE56170BD25627C
:103D100070BD656270BDFEE72DE9F04F8DB0069075
:103D20000A914FF44043C4F200034FF00002C4F282
:103D30000102821A18BF012298420CBF002302F030
:103D40000103C3B14FF40043C4F209034FF44042EE
:103D5000C4F20902821A18BF012298420CBF002344
:103D600002F001033BB146F22C00C0F202004FF01A
:103D7000CA01FFF7D5FB0A9C6379032B07D946F2EA
:103D80002C00C0F202004FF0CB01FFF7C9FB0A9CE8
:103D9000A379012B07D946F22C00C0F202004FF0A4
:103DA000CC01FFF7BDFB0A9C2379042B07D946F20F
:103DB0002C00C0F202004FF0CD01FFF7B1FB4FF431
:103DC0004043C4F20003069C9C4206D14FF0080019
:103DD0004FF00101FFF730FB1BE04FF00003C4F28E
:103DE0000103069C9C4206D14FF010004FF00101E8
:103DF000FFF722FB1BE04FF40043C4F20903069CCB
:103E00009C4206D14FF080704FF00101FFF714FB88
:103E100046E04FF44043C4F20903069C9C4206D19D
:103E20004FF000704FF00101FFF706FB38E04FF054
:103E30000003C4F20103069C9C4231D14FF0000301
:103E4000C4F201034FF007021A724FF000021A7217
:103E50001B7D13F0010F07D01346C4F201031A783B
:103E60001A7D12F0010FFAD14FF08003069C84F8FE
:103E700030302246137D13F0200FFBD04FF00003AB
:103E8000069C84F83030636023732362237484F8C3
:103E90004C3084F8543084F85030237E237D23E066
:103EA0004FF00703069C23724FF000032372237D1B
:103EB00013F0010F05D023461A781A7D12F0010F76
:103EC000FAD14FF08003069C84F830302246137DEF
:103ED00013F0200FFBD04FF00003069C84F8303025
:103EE000636023732362237D4FF44043C4F20903CC
:103EF000069C9C420BD14FF44043C4F209034FF09F
:103F0000000283F824200A9CD4F800901CE00A9C4C
:103F1000D4F800904FF44043C4F20003069C9C4246
:103F200005D14FF00600FFF771FA0B9025E04FF036
:103F30000003C4F20103069C9C4205D14FF0080027
:103F4000FFF764FA0B9018E04FF40043C4F2090342
:103F5000069C9C4205D14FF03000FFF757FA0B90BA
:103F60000BE04FF44043C4F20903069C9C4204D189
:103F70004FF03200FFF74AFA0B904FF000030B9A14
:103F80004FEA121209920B9C4FEA04740894DDE97F
:103F90000801CDE90001CDF81C904FF001064FF06B
:103FA000FF3A4FF000004FF00001CDE90201059308
:103FB00004934FF6FF77984637E0079C4FF00005D3
:103FC000B346DDE90001224643460EF0A5FF024656
:103FD0000B46B0F1004F84BF42424B1C03F1FF314E
:103FE000B9420AD8524508D202934FF0000103911A
:103FF0001AB39246CDF814B0049505F101054C446E
:10400000B542DED1BAF1000F12D006F10106079CCD
:104010004C440794DDE90001DDE90823801841EBF9
:104020000301CDE90001102E05D0002EC5D1E9E72E
:10403000059E049D01E0059E049DDDE9020101430A
:104040005AD00B9C4FEA1410A919029CA1FB04231F
:10405000039C01FB043300FB06F04FF000010EF05F
:104060005BFF484534BFC0EB0900C9EB00004FF0CF
:10407000640303FB00F3B3FBF9F9B9F1020F3BD87A
:104080004FF00003C4F20103069C9C421BD14FF089
:104090000003C4F201031A7B42F080021A730298F3
:1040A000C0F307221A719DF80810CAB21A701A7B61
:1040B00002F07F021A734FEA0612D2B205F00F0522
:1040C0002A439A621FE0069C237B43F080032373FC
:1040D0000298C0F3072323719DF80810CBB2237018
:1040E000237B03F07F03237305F00F0343EA0613DA
:1040F000DBB284F828300EE04FF00003C4F2010375
:10410000069C9C4207D14FF00003C4F201031B7BC5
:1041100003F0C00303E0069C237B03F0C0030A9C6A
:104120006279012A08BF43F0010307D032B1022AA5
:1041300018BF43F0030301D143F002030A9C227924
:104140007AB143F00803032A08BF43F0200308D0E4
:10415000042A08BF43F0300303D0022A08BF43F00B
:1041600010030A9CA279012A08BF43F004034FF010
:104170000002C4F20102069C9442DBB203BF00229B
:10418000C4F201021373069C18BF23730DB0BDE87F
:10419000F08F00BF4FF4165303604FF003034371D9
:1041A0004FF0000303718371704700BF38B50446B8
:1041B0000D464FF44043C4F200034FF00002C4F236
:1041C0000102821A18BF012298420CBF002302F09C
:1041D0000103C3B14FF40043C4F209034FF440425A
:1041E000C4F20902821A18BF012298420CBF0023B0
:1041F00002F001033BB146F22C00C0F202004FF482
:10420000ED71FFF78DF94FF00003C4F201039C42FA
:1042100003BF0023C4F201031D70257038BD00BF29
:1042200010B504464FF44043C4F200034FF00002BF
:10423000C4F20102821A18BF012298420CBF002367
:1042400002F00103C3B14FF40043C4F209034FF479
:104250004042C4F20902821A18BF012298420CBFE0
:10426000002302F001033BB146F22C00C0F2020031
:1042700040F2F311FFF754F94FF00003C4F20103C9
:104280009C4203BF0023C4F201031878207810BDBC
:104290002DE9F84F04468946012B59D123E0002B24
:1042A0005FD003F1FF33227D12F0200FF7D0002BF7
:1042B00057D0002D55D0D046D94618F8011BC2461C
:1042C0002046FFF773FF07F10107B9F101090CBFA1
:1042D00000230123013D0CBF002303F00103002B49
:1042E000EBD165B93DE04FF00007002A39D08A468E
:1042F00015464FF000074FF0FF364FF0100B237DAF
:1043000013F0200F08BF3346CBD0D2E7237D13F044
:10431000200F26D0354605E090464FF010054FF0AF
:1043200000072E46204619F80710FFF73FFF07F158
:104330000107B8F101080CBF00230123013D0CBFA8
:10434000002203F00102002AECD1002BDED108E0AC
:104350004FF000072AB1037D13F0200F08BF00279C
:10436000DAD13846BDE8F88F2DE9F04104460F4612
:104370001646012B0AD04FF00005002A35D0037DE8
:1043800013F0010F18BF002524D12CE04FF00005D9
:104390008AB92AE04BB303F1FF33227D12F0010FFB
:1043A000F8D013B32046FFF73BFF785505F1010520
:1043B000B54204D119E04FF000054FF0FF38237DDE
:1043C00013F0010F08BF4346E5D0EBE7237D13F060
:1043D000010F0AD02046FFF723FF785505F10105AC
:1043E000B542F3D101E04FF000052846BDE8F08169
:1043F000F8B504460D4616464FF44043C4F2000398
:104400004FF00002C4F20102821A18BF0122984242
:104410000CBF002302F00103C3B14FF40043C4F208
:1044200009034FF44042C4F20902821A18BF012264
:1044300098420CBF002302F001033BB146F22C006E
:10444000C0F202004FF42B71FFF76AF8012E07D972
:1044500046F22C00C0F2020040F2AD21FFF760F8F6
:10446000062D19D8DFE805F01604070A0D10130011
:104470004FF0020710E04FF004070DE04FF008077F
:104480000AE04FF0800707E04FF4807704E04FF434
:10449000007701E04FF001074FF00003C4F2010381
:1044A0009C4218D16B1F18BF0123022D94BF00231B
:1044B00003F0010313B3062D20D0A5F10305EDB2DF
:1044C000012D1BD946F22C00C0F2020040F2C92196
:1044D000FFF726F812E06B1F18BF0123022D94BFCF
:1044E000002303F001034BB1062D07D046F22C0048
:1044F000C0F2020040F2CD21FFF712F8012E10D1D8
:104500004FF00003C4F201039C4201BF0023C4F238
:1045100001035A6817430FBF5F6063681F436760FA
:10452000F8BD4FF00003C4F201039C420BD14FF0E1
:104530000003C4F20103596840F28F320A4022EAB4
:1045400007075F60F8BD626840F20733134023EA53
:1045500007076760F8BD00BF10B504464FF440433D
:10456000C4F200034FF00002C4F20102821A18BF25
:10457000012298420CBF002302F00103C3B14FF4A3
:104580000043C4F209034FF44042C4F20902821A04
:1045900018BF012298420CBF002302F001033BB177
:1045A00046F22C00C0F2020040F2FB21FEF7B8FFF9
:1045B0004FF00003C4F201039C4203BF0023C4F286
:1045C0000103187D207D10BD10B504464FF4404313
:1045D000C4F200034FF00002C4F20102821A18BFB5
:1045E000012298420CBF002302F00103C3B14FF433
:1045F0000043C4F209034FF44042C4F20902821A94
:1046000018BF012298420CBF002302F001033BB106
:1046100046F22C00C0F2020040F21231FEF780FF99
:10462000A36840F2CF30184010BD00BF037D13F0E7
:10463000400F14BF00200120704700BF38B504466A
:104640000D464FF44043C4F200034FF00002C4F2A1
:104650000102821A18BF012298420CBF002302F007
:104660000103C3B14FF40043C4F209034FF44042C5
:10467000C4F20902821A18BF012298420CBF00231B
:1046800002F001033BB146F22C00C0F2020040F2FE
:10469000EB31FEF745FF012D07D946F22C00C0F2A1
:1046A00002004FF47B71FEF73BFF012D16D14FF056
:1046B0000003C4F201039C4201BF0023C4F20103C2
:1046C00093F8302042F080020FBF83F8302094F836
:1046D000303043F0800384F8303038BD4FF00003B1
:1046E000C4F201039C4201BF0023C4F2010393F80A
:1046F000302000220FBF83F8302094F830300023A0
:1047000084F8303038BD00BF10B510B101285CD13D
:1047100009E021F00301FE295AD94FF08043596086
:104720004FF0010010BD40F21403C1F200031B68FA
:104730004FEA91014FEA93044DF68362C4F21B32B3
:10474000A2FB04044FEA944404FB01F4FE2C0AD9B2
:104750004FF000000146FEF711FE4FF080435C6011
:104760004FF0010010BD4FEA53044DF68362C4F2CE
:104770001B32A2FB04044FEA944404FB01F4FE2C18
:104780000BD94FF000004FF00201FEF7F7FD4FF09C
:1047900080435C604FF0010010BD4DF68364C4F2AD
:1047A0001B34A4FB03244FEA944404FB01F4FE2CC5
:1047B00011D94FF000004FF00101FEF7DFFD4FF07F
:1047C00080435C604FF0010010BD4FF0000010BD51
:1047D0004FF0000010BD4FF0000010BD38B5054689
:1047E0000C46022807D946F26400C0F202004FF0DE
:1047F000A601FEF795FE012C07D946F26400C0F22F
:1048000002004FF0A701FEF78BFE4FF000000146BB
:10481000FEF7B4FD4FF080431A6922F003021A61DB
:104820001A6915431D61012C02BF1A7842F0020279
:104830001A7038BD4FF080434FF0AA021A724FF041
:1048400055021A72704700BF10B501464FF0804400
:10485000206900F00300FFF757FF237843F00103BE
:104860002370FFF7E7FF10BD4FF00100704700BF56
:104870004FF00100704700BF4FF00100704700BFCC
:104880004FF00100704700BF4FF00100704700BFBC
:1048900040F20C02C1F2000243F28033C1F2000385
:1048A000587899784FEA014141EA0021187801438C
:1048B000D87841EA00611160197911715979517103
:1048C0009B7993714FF00100704700BF40F20C02DA
:1048D000C1F20002116843F28033C1F20003197083
:1048E0004FEA112058704FEA114098704FEA116159
:1048F000D970117919715179597192799A714FF072
:10490000010070474FF00100704700BF4FF00100F9
:10491000704700BF00B583B001A800F0D3F843F2A0
:10492000D410C1F2000001A900F0AEF8021E08DDAB
:104930004FF0820043F2D411C1F2000101F0A8F857
:1049400006E040F20803C1F200034FF001021A80B2
:1049500003B000BD4FF46143CEF200034FF00402F8
:10496000C3F80421704700BF00B583B040F2CC53B8
:10497000C1F200034FF000021A800DF1060000F0B2
:10498000AFF8BDF8063013F4004F1FBF40F2CC5211
:10499000C1F20002118841F0010118BF118013F427
:1049A000005F1FBF40F2CC52C1F20002118841F0FB
:1049B000020118BF118013F0100F1FBF40F2CC523C
:1049C000C1F20002118841F0040118BF118013F4F4
:1049D000804F1FBF40F2CC52C1F20002118841F05B
:1049E000080118BF118013F0080F1FBF40F2CC520E
:1049F000C1F20002118841F0100118BF118013F0BC
:104A0000040F1FBF40F2CC52C1F20002118841F0E6
:104A1000200118BF118013F0020F1FBF40F2CC53CA
:104A2000C1F200031A8842F0400218BF1A8040F217
:104A3000CC53C1F20003188803B000BD08B543F29F
:104A4000C811C1F200014FF0A1030B704FF0200319
:104A50004B704FF000038B70CB700B714B714FF0AC
:104A600002028A71CB7140F2CC53C1F200031B8861
:104A70000B724FEA13234B724FF081004FF00A0282
:104A800001F006F808BD00BF30B403460868A8B1BD
:104A90001D1843F26422C1F20002D2F88410D2F849
:104AA0008040A1420CD001F07F04145D03F8014B5B
:104AB00001F10101C2F88410AB42EED130BC704765
:104AC000FEE700BF43F26423C1F20003D3F8802065
:104AD000D3F88430D31A03F07F030360704700BF1C
:104AE00043F2F023C1F200031A8802804FF0000263
:104AF0001A80704743F2B032C1F200024FF0000357
:104B0000138043F28C32C1F20002137043F29832E8
:104B1000C1F20002137043F28832C1F200024FF07A
:104B20000111116043F29432C1F20002136043F2AA
:104B30009032C1F200021360704700BF08B54FF019
:104B4000000043F29C31C1F2000100F05DFF08BD9E
:104B500010B543F2A833C1F200039A881C464FF007
:104B600080001968082A28BF082200F091FF2368F6
:104B70001B182360A388181AA08010BD10B543F23B
:104B8000A834C1F200044FF00000216800F03CFF9F
:104B900023681B182360A388181AA08010BD00BFCB
:104BA00008B54FF080004FF000010A4600F070FF9A
:104BB00008BD00BF08B54FF0000043F28031C1F2DC
:104BC000000100F021FF08BD2DE9F04F85B000F194
:104BD000FF30062800F23085DFE810F00700A3045C
:104BE000FC042E052E0519051E05FFF7A7FF43F24D
:104BF0009C34C1F2000420784FEAD01000F0B8FED7
:104C000043F2A833C1F20003E2889A802378C3F309
:104C100041131BB1012B40F07884D5E343F29C3360
:104C2000C1F200035B780B2B00F26F84DFE813F016
:104C30000C0082006D04E6006D043F015701CE01B7
:104C4000DA01EF01E2020E0343F29C33C1F20003EA
:104C50001B7803F01F03012B0FD0022B30D0002B49
:104C600040F0538443F2A833C1F2000343F2B03260
:104C7000C1F200021A6000F0D4BC43F29833C1F2D2
:104C800000031B78002B00F0408443F29C32C1F2F9
:104C9000000243F2A433C1F2000312791B789A4256
:104CA00080F0338443F28033C1F200034FF00002FE
:104CB0001A8043F2A832C1F20002136000F0B1BCC6
:104CC00043F29C33C1F200031A7902F08F0312F011
:104CD000800F1DBF03F00F024FF4803101FA02F282
:104CE000012208BF9A4043F29831C1F200010978CD
:104CF00019B913F00F0F40F0088443F28833C1F262
:104D000000031B681A4200F0008443F28033C1F2B2
:104D1000000343F29431C1F2000109680A420CBF5A
:104D2000002201221A8043F2A832C1F2000213606D
:104D300000F077BC43F29C33C1F200031B7813F000
:104D40001F0303D0022B40F0E08315E043F29C33B5
:104D5000C1F200035B88012B40F0D7834FF00000C5
:104D600000F03AFD43F2B033C1F200031A8822F09A
:104D700002021A8000F058BC43F29C33C1F20003D7
:104D80001B7903F08F0013F0800F1DBF00F00F039D
:104D90004FF480349C40012408BF844043F2983390
:104DA000C1F200031B78002B00F0AF8310F00F0F4F
:104DB00000F0AB8343F28833C1F200031B681C424E
:104DC00000F0A38343F29C33C1F200035B88002B05
:104DD00040F09B8343F29033C1F200031B681C42F6
:104DE00040F0228400F002FE43F29433C1F200034B
:104DF0001A6822EA04041C6000F016BC43F29C33DB
:104E0000C1F200031B7813F01F0303D0022B40F004
:104E10007C8314E043F29C33C1F200035B88012BD6
:104E200040F073834FF0010000F0D6FC43F2B03342
:104E3000C1F200031A8842F002021A80F7E343F23B
:104E40009C33C1F200031B7903F08F0013F0800F35
:104E50001DBF00F00F034FF480349C40012408BFB5
:104E6000844043F29833C1F200031B78002B00F01A
:104E70004C8310F00F0F00F0488343F28833C1F2E7
:104E800000031B681C4200F0408343F29C33C1F2D4
:104E900000035B88002B40F0388300F097FD43F25D
:104EA0009433C1F200031A6814431C60BFE343F259
:104EB0009C33C1F200031B7813F01F0F40F02583D1
:104EC00043F28C33C1F2000343F29C32C1F2000280
:104ED000927862F07F021A70FFF762FEACE343F251
:104EE0009C33C1F200031B7813F01F0F40F00D83B9
:104EF00043F29C33C1F20003DB78022B11D0032B69
:104F000003D0012B40F0018316E043F29C33C1F241
:104F100000039878002834D146F2E003C0F202037F
:104F20003CE043F29C33C1F20003987880B946F22A
:104F30009C03C0F2020319E043F2A833C1F200035C
:104F400046F24812C0F202021A604FF012032FE03C
:104F50004FF0000246F29C03C0F20203197809B137
:104F600059885B1802F101029042F7D11A78002AA1
:104F700000F0CB8243F2A832C1F2000213605B88DA
:104F800016E04FF0000246F2E003C0F20203197887
:104F900001B15B1802F101028242F8D11A78002AAD
:104FA00000F0B38243F2A832C1F2000213601B7812
:104FB00043F2A832C1F2000292889A4240F23A8348
:104FC00043F2A832C1F20002938033E34FF00000B5
:104FD00000F0FCFC43F2A833C1F200034FF00002E2
:104FE0009A8029E343F29C33C1F200031B7813F04B
:104FF0001F0F40F08A8243F2A833C1F2000343F24C
:105000009832C1F200021A60FFF7A2FD14E343F2E6
:105010009C33C1F200031B7813F01F0F40F0758220
:1050200043F29C33C1F200039B78002B7ED194E0C5
:105030006378042B59D0052B5AD0022B73D1627997
:1050400043F29C33C1F200039B7893421CBF6388F8
:10505000E4187DD143F29833C1F200031A7043F291
:10506000A433C1F2000322791A7043F27C33C1F2F7
:1050700000034FF000021A705A709A70DA704546B9
:105080002F4608FA05F233681A4202D0284600F08B
:105090007FFC09FA07F733681F4203D045F0800010
:1050A00000F076FC05F10105102DE9D14FF0011358
:1050B000336043F29433C1F200034FF000021A60F0
:1050C00043F29033C1F200031A60404600F0FCFB4B
:1050D000E37913F0400FBAF8003014BF43F0010336
:1050E00023F00103AAF800301DE094F803B01AE0A1
:1050F000BBF1000F17D1A37803F08F0513F0800FD9
:105100001ABF05F00F0309FA03F308FA05F3326832
:1051100013433360204600F001FC284600F02AFCCF
:10512000284600F045FC2378E41811E04FF0000B0E
:1051300046F29C04C0F2020443F28836C1F2000633
:105140004FF001084FF4803943F2B03AC1F2000A3F
:105150002378002B7FF46CAF3AE043F29833C1F22E
:1051600000034FF000021A704FF00104274643F28B
:105170008835C1F200054FF48038264607FA04F25C
:105180002B681A4202D0204600F002FC08FA06F60C
:105190002B681E4203D044F0800000F0F9FB04F1BC
:1051A0000104102CE9D143F28833C1F200034FF01F
:1051B00001121A6043F29433C1F200034FF0000071
:1051C000186043F29033C1F20003186000F07CFBDA
:1051D00043F29C32C1F2000243F29833C1F2000361
:1051E00092781B789A4240F09081FFF7D9FC00F04A
:1051F00027FD21E243F29C33C1F200031B7803F048
:105200001F03012B40F0818143F29833C1F2000368
:105210001B78002B00F0798143F29C33C1F200032C
:10522000197943F2A433C1F200031B788B4240F298
:105230006C8143F2A833C1F2000343F27C32C1F225
:1052400000028A181A60FFF783FCF5E143F29C33F1
:10525000C1F200031B7803F01F03012B18BF0026C7
:1052600040F0AC8043F29833C1F200031B78002B6E
:1052700000F04B814FF00006B246019637463546A6
:1052800046F29C04C0F2020443F27C33C1F20003F4
:10529000029343F28838C1F2000843F29439C1F214
:1052A000000987E06378042B0FD0052B2ED0022B4A
:1052B0007ED143F29833C1F2000362791B789A429F
:1052C0001CBF6388E41875D172E0A578E2781746B0
:1052D00043F29C33C1F200031B799D4218BF4FF08B
:1052E000000A65D143F29C33C1F200039B789A42D5
:1052F00018BF4FF0000A5BD1029B5B5D0193029BDC
:105300005A554FF001064FF0000A51E043F29C332A
:10531000C1F200031B79AB424AD1A37803F08F029C
:10532000009213F0800F19BF02F00F034FF4803B7F
:105330004FF0010B009B0BFA03FB43F29C33C1F2CD
:1053400000039B780393BB4218D1D8F800304BEA96
:105350000303C8F80030D9F8003023EA0B03C9F87A
:105360000030204600F0DAFA009800F003FB0098C5
:1053700000F01EFB4AEA0B0A039F19E0019A9742CC
:1053800016D11BEA0A0F12D16FEA0B0BD8F80030C6
:105390000BEA0303C8F80030D9F800300BEA030326
:1053A000C9F80030009800F0F3FA019700E0019787
:1053B0002378E4182378002B7FF474AF002E00F0DC
:1053C000A480FFF7EDFB37E143F29C33C1F2000309
:1053D0001B7803F01F03012B40F0978043F29C33AE
:1053E000C1F200031B79012B00F28F8043F29C3342
:1053F000C1F200035B78232B00F28780DFE803F023
:10540000121C2C364B85858585858585858585850A
:10541000858585858585858585858585858585853C
:1054200056606F7A43F2A833C1F2000343F2803230
:10543000C1F200021A60FFE0FFF71AFA002864D0F8
:1054400043F2A833C1F2000343F28032C1F20002FA
:105450001A60FFF77DFBEFE043F2A833C1F20003CF
:1054600043F28032C1F200021A60E5E043F29C335D
:10547000C1F200035888FFF703FA002845D043F231
:10548000A833C1F2000343F28032C1F200021A6075
:10549000FFF75EFBD0E043F29C33C1F20003588873
:1054A000FFF7F2F988B3FFF77BFBC5E043F2A833BF
:1054B000C1F2000343F28032C1F200021A60BBE085
:1054C000FFF704FA08B343F2A833C1F2000343F232
:1054D0008032C1F200021A60FFF73AFBACE043F2FF
:1054E0009C33C1F200035888FFF70CFA68B1FFF74C
:1054F00057FBA1E043F29C33C1F200035888FFF749
:1055000005FA10B1FFF74CFB96E04FF0800000F079
:105510005DFA43F2A833C1F200034FF000029A8013
:105520008AE043F29C33C1F200031B7813F0800F32
:105530004DD143F2A833C1F200039B88002B7BD0EE
:10554000FFF71CFB43F2A833C1F200039B88002B3A
:1055500072D143F29C33C1F200031B78C3F34113B1
:10556000012BD2D143F29C33C1F200031B7803F02C
:105570001F03012BC9D143F29C33C1F200031B79F5
:10558000012BC2D843F29C33C1F200035B78022B9B
:105590000AD0202B14D0002BB7D1FFF765F90028D3
:1055A000B3D0FFF7FDFA47E043F29C33C1F20003AA
:1055B0005888FFF761F90028A7D0FFF7F1FA3BE020
:1055C000FFF766F90028A0D0FFF7EAFA34E0FFF70A
:1055D000F1FA31E043F29C33C1F200031B7813F07F
:1055E000800F02D0FFF7B4FA26E043F28C33C1F209
:1055F00000031B7813F0800F1ED003F07F0043F2EE
:105600008C32C1F20002107000F0E8F814E04FF0A4
:10561000000000F0EBF90FE04FF0800000F0E6F939
:105620000AE0FFF795FA07E0FFF7BAFA04E0FFF7A0
:10563000B7FA01E0FFF78CFA05B0BDE8F08F00BFC4
:10564000034600F00F004FEA400013F0800F18BF30
:10565000013070474FF44043C5F200034FF0100291
:10566000C3F80822C3F810024FF44042C5F200020A
:10567000D2F8003213F0100FFAD070474FF44043C5
:10568000C5F200034FF01002C3F80822C3F810025D
:105690004FF44042C5F20002D2F8003213F0100F6E
:1056A000FAD04FF44043C5F200034FF01002C3F8A4
:1056B0000822C3F810124FF44042C5F20002D2F89B
:1056C000003213F0100FFAD0704700BF38B50D4606
:1056D0004FF44044C5F200044FF01003C4F8083200
:1056E000FFF7AEFF4FEA004343F4A063C4F8103263
:1056F0004FF44042C5F20002D2F8003213F0100F0E
:10570000FAD04FF44043C5F200034FF01002C3F843
:105710000822C3F810524FF44042C5F20002D2F8FA
:10572000003213F0100FFAD038BD00BF4FF44043E1
:10573000C5F200034FF03002C3F80822C3F810028C
:105740004FF44042C5F20002D2F8003213F0200FAD
:10575000FAD04FF44043C5F20003D3F81402704767
:1057600008B54FF48071C0F20101002808BF4FF462
:1057700080714FF4A060C0F2FE00FFF77FFF08BD0C
:105780004FF44043C5F200034FF00002C3F8482233
:105790004FF00802C3F84C224FF00101C3F8481241
:1057A000C3F84C224FF44042C5F20002D2F8003256
:1057B00013F4807FFAD04FF44043C5F200034FF05A
:1057C000FF32C3F83822C3F83422C3F808224FF05E
:1057D0000C02C3F804227047704700BF38B540F090
:1057E00080054FEA054545F480754FF4A064C0F28A
:1057F000D00420462946FFF741FF20462946FFF7FF
:105800003DFF38BD08B54FF44043C4F202035A6867
:1058100022F070525A605A6842F0A0525A60DA6818
:1058200022F0405222F03002DA60DA6842F0005290
:1058300042F01002DA601A6922F440221A611A69F1
:1058400042F480221A61DA6822F0405222F03002DB
:10585000DA60DA6842F0005242F01002DA604FF487
:105860004043C4F20F03D3F8C42042F00042C3F80F
:10587000C4204FF44043C5F200034FF01A02C3F8AE
:10588000F42F4FF44042C5F20002D2F8F83F03F083
:105890001A031A2BF9D14FF46143CEF200034FF0F3
:1058A000200283F818234FF080721A604FF04002F4
:1058B00083F822234FF004025A60FFF761FF4FF094
:1058C0000000FFF78BFF08BD08B54FF48071C0F2F0
:1058D0000101002808BF4FF480714FF4A060C0F2AE
:1058E000D800FFF7CBFE4FF44043C5F200034FF062
:1058F0000302C3F844224FF44042C5F20002D2F83A
:10590000003213F4807FFAD04FF44043C5F2000315
:105910004FF48072C3F8082208BD00BF10B50446DA
:105920008078FFF78DFE4FF44043C5F20003D3F8B3
:1059300044124FF0010202FA00F20A43C3F8442273
:10594000C3F84802A288C3F84C224FF44042C5F283
:105950000002D2F8003213F4807FFAD04FF44043B3
:10596000C5F200034FF48072C3F8082210BD00BFD7
:10597000704700BF08B5FFF763FE4FEA004040F4F0
:10598000800040F4A0604FF48071FFF777FE08BDFF
:1059900008B5FFF755FE4FEA004040F4800040F4A0
:1059A000A0604FF48071C0F22001FFF767FE08BDD0
:1059B00008B5FFF745FE4FEA004040F4800040F490
:1059C000A0604FF48071FFF759FE08BD08B5FFF7DE
:1059D00037FE4FEA004040F4800040F4A0604FF4EE
:1059E0008071C0F20101FFF749FE08BD08B5FFF75D
:1059F00027FE4FEA004040F4800040F4A0604FF4DE
:105A00008071FFF73BFE08BD70B500F00F024FEA52
:105A1000820242F001024FF44043C5F20003C3F892
:105A200028224FF44043C5F20003D3F8204214F477
:105A3000006FFAD04FEA84544FEA945404F10306FD
:105A4000B6080DD04FF000034FF44045C5F20005F5
:105A5000D5F8182241F8232003F10103B342F7D10E
:105A60004FF44043C5F200034FF00002C3F8282270
:105A700041F2482343FA00F313F0010F05D14FF42C
:105A8000A061C0F2F201FFF721FE204670BD00BF09
:105A900070B5144600F00F024FEA820242F0020293
:105AA0004FF44043C5F20003C3F82822C3F8244250
:105AB00004F10306B6080DD04FF000034FF4404543
:105AC000C5F2000551F82320C5F81C2203F101039B
:105AD000B342F7D14FF44043C5F200034FF0000248
:105AE000C3F828224FF4A061C0F2FA01FFF7EEFDDF
:105AF000204670BD2DE9F8434FF44043C5F2000342
:105B0000D3F8003213F0080F1CD04FF44043C5F215
:105B100000034FF00802C3F808224FF4A060C0F25F
:105B2000FE00FFF797FD4FF40070C0F2FE00FFF794
:105B3000FDFD10F0100F5DD0FFF722FE00F07CF8A5
:105B4000BDE8F88313F0040F54D04FF44043C5F27E
:105B50000003D3F83072002F44D04FF001064FF00D
:105B60000004A0464FF44045C5F2000546F25C191A
:105B7000C0F2020905E004F1010406F10106B8458E
:105B800030D022464FF0010303FA04F33B4227D002
:105B900048EA03084FEA5401C5F83832D5F8003214
:105BA00013F0200FFAD0D5F8143212F0010F11D1F2
:105BB0004CB913F0040F06D0D9F800301BB14FF0E8
:105BC00001009847D7E759F821304BB14FF0020058
:105BD000984705E059F8213013B14FF0030098477A
:105BE0001F2EC8D94FF44043C5F200034FF0040202
:105BF000C3F80822BDE8F88308B5022802D00328BC
:105C000005D102E0FEF7A6FE08BDFEF783FE08BD43
:105C100008B503280FD1FEF7A7FE40F2CE53C1F21C
:105C200000031B88834206D040F2CE53C1F200032A
:105C30001880FEF703FF08BD08B5FEF75BFF08BD3F
:105C4000704700BF82B04FF000030193019B042B0B
:105C500006D8019B03F101030193019B042BF8D9A2
:105C600002B0704743F6C833C1F200034FF016028A
:105C70001A604FF0FF30704708B5014646F29C109D
:105C8000C0F2020000F026FCFEE700BF4FF001006A
:105C9000704700BFEFF30880704700BF38B540F28F
:105CA000D053C1F200031B6843B940F2D053C1F294
:105CB000000343F6D032C1F200021A6040F2D05322
:105CC000C1F200031C682518FFF7E4FF854207D9DD
:105CD00046F2BC10C0F2020000F0FCFB18F0AEFE71
:105CE00040F2D053C1F200031D60204638BD00BF12
:105CF0004FF0FF30704700BF4FF400534B604FF040
:105D0000000070474FF00100704700BF4FF00000E7
:105D1000704700BF08B54FF44040C4F200004FF098
:105D200001021346FEF720FB08BD00BF70B50C460C
:105D3000161E06DD8D1914F8010B00F061FBAC4254
:105D4000F9D1304670BD00BF4FF44043C4F20F0399
:105D50004FF02002C3F8A0214FF44042C4F20F02DA
:105D6000D2F8A03113F0400FFAD04FF44043C4F200
:105D70000F034FF00202C3F804214FF00002C3F8F2
:105D8000A821C3F8AC214FF00100C3F80C014FF07B
:105D90000802C3F884204FF0AA01C3F88C104FF01A
:105DA0005502C3F88C20C3F88000C3F88C10C3F8E8
:105DB0008C204FF44042C4F20F02D2F8883013F026
:105DC000806FFAD04FF44043C4F20F034FF0030248
:105DD000C3F880204FF0AA02C3F88C204FF0550280
:105DE000C3F88C204FF44042C4F20F02D2F888303E
:105DF00013F0407FFAD04FF44043C4F20F034FF04A
:105E00002202C3F8A4204FF0AA02C3F88C20C3F8E2
:105E1000AC204FF05501C3F8AC104FF00100C3F8AF
:105E2000A000C3F8AC20C3F8AC104FF44042C4F259
:105E30000F02D2F8A83013F4806FFAD04FF4404329
:105E4000C4F20F034FF00302C3F8A0204FF0AA02E0
:105E5000C3F8AC204FF05502C3F8AC204FF44042D9
:105E6000C4F20F02D2F8A83013F4407FFAD04FF4F6
:105E70004043C4F20F034FF00002C3F8A821C3F857
:105E8000AC2148F2DE71C0F22841C3F8C410C3F857
:105E9000C82145F23A021A60704700BF2DE9F0416F
:105EA00084B040F2D453C1F200034FF000041C60F0
:105EB0004FF001068DF802608DF804408DF8034024
:105EC0004FF002088DF8018004AD05F8104D6846CA
:105ED000FDF728FB4FF003078DF801706846FDF7CA
:105EE00021FB02A8FEF756F94FF4FA2302938DF82E
:105EF0000C408DF80E408DF80D704FF44045C4F203
:105F00000005284602A9FDF707FF28463146FEF79F
:105F100095FB284621463246FEF76AFA2846414656
:105F20003246FEF765FA43F6C433C1F200031C7033
:105F300043F2B433C1F200039C60DC601C605C601F
:105F40004FF46143CEF200034FF0500283F8052373
:105F50004FF020021A6004B0BDE8F08170B582B045
:105F600040F2D454C1F2000441F60835C1F20005F4
:105F700040F2D856C1F200064FF44040C4F200008F
:105F80000DF107014FF001024FF00003FEF7ECF9AD
:105F9000002839D023689DF80720EA5403F1010353
:105FA00023600A2A14BF002301230D2A08BF43F0EF
:105FB00001034BB14FF001033360216801F1FF3160
:105FC0004FF000036B54236043F2B433C1F200037B
:105FD000D9689B6803F101034B404FEA83534FEAB2
:105FE0009353002BC8D043F2B433C1F20003996835
:105FF000591881F810249A6802F101024FEA82527E
:106000004FEA92529A60B7E702B070BD70B54FF494
:106010004040C4F200004FF001014FF00002FEF7D3
:10602000E7F94FF44044C4F200042046FEF7FEFABC
:106030000128FAD043F2B433C1F200031A685B6856
:1060400053404FEA83534FEA93532BB343F2B43494
:10605000C1F200044FF44045C4F200054FF00106C0
:10606000616801F110012846611832464FF00003C3
:10607000FEF70EF980B1636803F101034FEA835321
:106080004FEA935363602368626853404FEA835337
:106090004FEA9353002BE3D143F2B433C1F2000330
:1060A0001A685B6853404FEA83534FEA93538BB9A6
:1060B0004FF44040C4F200004FF001014FF00002E5
:1060C000FEF796F943F6C433C1F200034FF0000225
:1060D0001A7070BD43F6C433C1F200034FF00102E1
:1060E0001A704FF44040C4F200001146FEF780F9E8
:1060F00070BD00BFFEE700BF10B54FF44040C4F2D2
:106100000000FEF761FA00F00E04062C0AD14FF4ED
:106110004040C4F20000FEF71FFA10F09E0010D0BD
:10612000FFF7E8FF0C2C14BF00230123042C08BF49
:1061300043F001030BB1FFF711FF022C01D1FFF770
:1061400065FF10BD70B506460D4614464FF00101BF
:106150004FF00002FEF74CF9002C34D043F2B43378
:10616000C1F200035A681B6803F1010353404FEA70
:1061700083534FEA93534BB304F1FF30C0B200F1A5
:1061800001004FF0000443F2B433C1F200031A6877
:10619000295D9A1811741A6802F101024FEA8252BD
:1061A0004FEA92521A6004F10104844210D05968F7
:1061B0001A6802F101024A404FEA82524FEA9252B3
:1061C000002AE4D104E04FF0000401E04FF00004A5
:1061D00043F6C433C1F200031B7813B9FFF716FF6F
:1061E00005E030464FF001010A46FEF701F920466E
:1061F00070BD00BF00B583B002A901F8010D4FF4D6
:106200004040C4F200004FF00102FFF79BFF03B0D3
:1062100000BD00BF70B506460D4614464FF00001A4
:106220000A46FEF7E5F88CB343F2B433C1F200033B
:106230009A68DB6853404FEA83534FEA935343B362
:1062400004F1FF31C9B201F101014FF0000443F242
:10625000B433C1F20003DA689A1892F810242A5570
:10626000DA6802F101024FEA82524FEA9252DA6092
:1062700004F101048C420ED09A68D86842404FEA7B
:1062800082524FEA9252002AE5D104E04FF0000416
:1062900001E04FF0000430464FF000014FF00102E2
:1062A000FEF7A6F8204670BD10B582B04FF440440A
:1062B000C4F20004204601A94FF00102FFF7AAFF33
:1062C0000028F7D102B010BD10B50446FFF7ECFF6F
:1062D000204646F2E011C0F2020119F093FE50BBD5
:1062E00046F2E410C0F2020044494FF0490200F0C7
:1062F000F1F84FF46D43CEF200034FF000029A60C4
:106300004FF48040C4F202004FF002014FF0BB3264
:10631000FDF758F94FF001000146FEF75FFA4FF024
:106320000100FEF791FA4FF46143CEF200034FF003
:1063300001021A6010BD20464BF62821C0F202016E
:1063400019F060FEC8B946F23020C0F202002B49B5
:106350004FF0510200F0BEF84FF001000146FEF789
:106360003DFA4FF00100FEF76FFA4FF46143CEF2B1
:1063700000034FF001021A60FEE720464BF60C21A5
:10638000C0F2020119F03EFE48B946F24C20C0F2BC
:1063900002001A494FF0590200F09CF810BD204647
:1063A00046F26C21C0F2020119F02CFE48B946F207
:1063B0007020C0F2020011494FF05C0200F08AF830
:1063C00010BD20464AF6B471C0F2020119F01AFE5F
:1063D00048B946F28420C0F2020008494FF05F023B
:1063E00000F078F810BD46F2CC20C0F20200214641
:1063F000024A4FF0620300F06DF810BD28620200FF
:1064000010B504460A2803D14FF00D00FFF7F2FE45
:106410002046FFF7EFFE10BD10B50446007828B106
:10642000FFF7EEFF14F8010F0028F9D110BD00BFEF
:10643000F0B587B00B1EA8BF002506DAC3F1000334
:106440000028BABF40422D250025DBB2002ABABF82
:10645000524230212021142AD8BF002701DD37E025
:106460002746B0FBF3F603FB1606F6B2092E84BFEF
:106470000736F6B206F130060DF1180E0EEB0704E2
:1064800004F8146C07F10104E4B2B0FBF3F0002847
:10649000E6D12DB1744404F8145C07F10204E4B2AF
:1064A0002346A24209DD06A8C31803F8141C04F110
:1064B0000104E4B22346A242F5DC04F1FF34E4B265
:1064C00006AA131913F8140CFFF79AFF002CF4D145
:1064D00007B0F0BD0FB4F0B583B008AB53F8044B70
:1064E00001934FF002054FF00A066FF0090771E0C3
:1064F000252804D004F10104FFF782FF6AE06078E8
:10650000302819BF02344FF0000CA078033408BFC4
:106510004FF0010CA0F13003092B88BF002211D8E5
:1065200023464FF0000202EB8201A0F1300000EBA5
:106530004100121813F8011B08461C46A1F1300156
:106540000929F0D9BCF1000F01D0C2F100026C287A
:1065500006BF14F8010B0123002300283DD0732847
:1065600007D1019B03F1040201921868FFF754FF61
:1065700030E0632807D1019B03F1040201921878EF
:10658000FFF73EFF26E075280CD064280ED078284F
:1065900014BF00210121582808BF41F001014FEA32
:1065A000011100E03146622801D102E0394609B903
:1065B00013E029463BB1019B03F1040001901868E8
:1065C000FFF736FF06E0019B03F104000190186815
:1065D000FFF72EFF207800288AD103B0BDE8F040F5
:1065E00004B0704700B583B001298CBF002301239C
:1065F000002808BF43F0010343BB036880681B68A1
:1066000000EB41000DF106014FF00202984700B384
:10661000BDF806004FF6F773984214BF002301231C
:10662000002808BF43F00103B3B900F1100292B291
:106630004FF6F773984294BF00230123062A98BFB0
:1066400043F00103002B18BF002007E04FF00000CB
:1066500004E04FF0000001E04FF0000003B000BD87
:106660002DE9F04383B00C46054601298CBF002379
:106670000123002808BF43F0010343BBD0F8088082
:106680004FF0010071B34FF6F7774FF0000908EBB8
:1066900044062B681B6830460DF106014FF00202DC
:1066A0009847B8B1BDF80640BCB104F110039BB2E5
:1066B000072B15D9BC4218D8ADF806902B689B68FB
:1066C00030460DF106014FF002029847DFE74FF028
:1066D000000007E04FF0000004E04FF0010001E08F
:1066E0004FF0000003B0BDE8F08302A94FF00003B3
:1066F00021F8023D2B689B6830464FF00202984714
:106700004FF00100EEE700BF2DE9F04F87B0039195
:1067100002904FF0000700286DD0036819680091BF
:106720009B680193D0F808B0848BC368C3F34F0A09
:106730004FF000038383BAF1000F3FD055469146D6
:106740004FF000074FF00208544534BF00230123E7
:10675000012C98BF43F00103002B18BF02240BEB60
:10676000440630460DF116014246009B984700282A
:106770003FD0BDF81630C3B9B9F1000F02D102996C
:106780008C8321E04FF6FF73002F18BF3B46ADF816
:10679000163030460DF116014246019B984708B36A
:1067A00009F1FF391FFA89F9274605F1FF35ADB226
:1067B00004F10104A4B2002DC6D102E091464FF0CD
:1067C0000007B9F1000F0DD10399012913D906A9CA
:1067D00021F8027D039B0BEB43004FF00202019B6B
:1067E000984740B902983946FFF73AFF4FF0000743
:1067F00001E04FF00007384607B0BDE8F08F00BF5A
:106800004FF01000704700BF034601298CBF0022E3
:106810000122002808BF42F0010232B9A1F10201B1
:10682000408A5B6900FB013070474FF00000704701
:1068300003784FF00A024FEA530141EAC31310F8FC
:10684000011F5B1803F0FF0302F1FF32D2B2002AEE
:10685000F1D11846704700BF10B586B00446012933
:1068600098BF002011D9FFF7CFFF4FF0000302932C
:106870000393049305932168628A0093CC6802A96C
:1068800046F60103C0F20003A04706B010BD00BFEA
:106890002DE9F04184B004460F461646156853684A
:1068A00003F1200353600378D3F1010238BF0022C3
:1068B000E52B14BF134642F001032BB14FF0000348
:1068C00033724FF00100B3E0C37A0F2B37D1337A24
:1068D00013B1427B9A4209D028464FF000014FF095
:1068E0002C0218F097FF637B3372AF62237803F0BA
:1068F0003F0303F1FF3303EB430703EB8707BFB20B
:1069000046F2F826C0F202066B4630687168B2683B
:1069100007C3327B1A701E2F88BF012040F28B8084
:1069200086E013F8012FA25C7A7007F101078B4211
:106930007CD0EA191E2AF4D94FF0010078E02B78B8
:1069400023B1FFF775FF337A834262D028464FF0B8
:1069500000014FF02C0218F05DFFAF622278202A70
:1069600008BF002020D004F10101A4464FF001032C
:106970004FF0000008E08C4611F8012B03F10107ED
:10698000202A11D018463B462A54277B17F0080FBF
:1069900007D09CF80070402F03D95A2F9CBF20329B
:1069A0002A54D8B2082BE6D12B78052B04BFE52357
:1069B0002B70237A202B08BF034627D04FF02E03DD
:1069C0002B5400F10103DBB2227A202A1ED004F1FD
:1069D000080C04F1090100F10400C0B204E08C4687
:1069E00011F8012B202A11D0EA54277B17F0100F41
:1069F00007D09CF80070402F03D95A2F9CBF20323B
:106A0000EA5403F10103DBB28342E8D14FF0000204
:106A1000EA54E37A85F82030638B6B84E3696B6218
:106A20004FF0010373724FF0000001E04FF00100DE
:106A300004B0BDE8F08104AB13F8102DA25CEA5558
:106A4000EF1903A9C5F1010573E700BF2DE9F04F68
:106A500085B00C4605461346D2F1010238BF00222C
:106A6000002808BF42F001024FF00009002A73D14C
:106A7000184619F0AFFC00F10C004EF64F43C4F677
:106A8000C463A3FB00234FEA930303F10103DBB2CA
:106A90000193B4F826804FF00007B946B8F1000F13
:106AA00002D16F69D5F818904C464FF00006B346F6
:106AB0004FF0010ABC4228D1B8F1000F47D0DCB139
:106AC00028464146FFF78EFDA8B9284641464FF0BB
:106AD0000102FFF719FE01464FF0000900283BD0E4
:106AE000A0F10202B5F812906B6909FB0239284641
:106AF000FFF7B2FE30E0804628464146FFF784FEAD
:106B000004466F8AC71981465E462B681B6820467B
:106B10000DF10F0152469847E0B19DF80F30D3F1C7
:106B2000010238BF0022E52B14BF134642F00103D7
:106B300043B106F10106F6B2019BB3420CD904F150
:106B40002004B7E704F12004A1465E46B2E74FF007
:106B5000000901E04FF00009484605B0BDE8F08F9C
:106B60002DE9F04F89B00E46D1F1010138BF002167
:106B7000002808BF41F00101002940F0E4800368CB
:106B8000D3F808A0B76A3546304619F023FCC4B2E2
:106B900004F10C094EF64F43C4F6C46383FB0903AA
:106BA0004FEA930968464FF020014FF00B0218F0AE
:106BB00031FE30464FF02E0119F0CAFC90B14378F7
:106BC00083B100F10108404619F004FCC2B26FEA3B
:106BD0000203E418E4B202A84146032A28BF0322B4
:106BE00018F042FD082C10D868463146224618F0AD
:106BF0003BFD33782E2B1ED173782E2B08BFB37834
:106C0000002B08BF4FF0000915E06B462868696843
:106C100003C396F822309F2B4FEA131294BF3032F1
:106C200061328DF8062003F00F03092B94BF303337
:106C300061338DF807309DF80030E52B04BF052344
:106C40008DF800300DF10B004FF000014FF01502F0
:106C500018F0E0FD96F820308DF80B30728CADF80E
:106C60001A20736A07934FEA4910C01969464FF01A
:106C70002002D047002869D06846FFF7D9FD834637
:106C80004FF00100B9F1000F62D04D464FF0000403
:106C90004FF00E0868464FF0FF014FF0200218F049
:106CA000B9FD05F1FF3303EB430203EB8203F25C12
:106CB0008DF801208DF80240F31803F1FF324FF0F8
:106CC000030316E040780DF1200E0EEB030101F8EE
:106CD000200C03F10101C9B2714401F8204C03F109
:106CE0000203DBB20B2B08BF434602D01A2B08BFAE
:106CF0001C2302F101021046117809B11E2BE1D9C3
:106D00008DF800504D4504BF49F040038DF8003028
:106D10004FF00F038DF80B308DF80DB08DF80C404F
:106D20008DF81A408DF81B40384669464FF0200216
:106D3000D04707F1200705F1FF35EDB2002DA9D1AD
:106D40004FF0010004E04FF0000001E04FF00000C0
:106D500009B0BDE8F08F00BF2DE9F04788B00446C8
:106D6000002800F09F808368002B00F09E80C3689D
:106D7000002B00F09D8040F2DC53C1F200031B6841
:106D8000002B40F0988040F2DC51C1F200014FF03E
:106D900000024A6001F1080343F8042B43F8042B76
:106DA00043F8042B43F8042B43F8042B1A600860C3
:106DB00045694FEA4525036805F10B0001A94FF02D
:106DC00019029847002865D0BDF80430BDF807C007
:106DD0009DF806709DF80980BDF80A60BDF80C00AA
:106DE000BDF80F10DDF8192012B9002852D0024664
:106DF00000294FD001FB08F1CCEB0209C1EB0909D6
:106E00004FEA4610C01800F1FF3090FBF3F0C0EBE2
:106E10000909B9FBF7F940F6F47081453AD94FF604
:106E2000F47081458CBF0B200620207440F2DC58A2
:106E3000C1F200084FF0000A08F10C0040F804AB62
:106E400040F804AB40F804ABC0F800A003FB02F22A
:106E5000C8F804200CFB0355C8F8085009F10209D2
:106E6000227C062A14BF04220222404609FB02F2B9
:106E7000C8F80C20A8F8103003FB07F7A8F8127028
:106E800003FB0153C8F818304FEA46169B19C8F89F
:106E9000143012E040F2DC53C1F200034FF0000066
:106EA00018600AE04FF0000007E04FF0000004E037
:106EB0004FF0000001E04FF0000008B0BDE8F0879F
:106EC00010B14FF000020260704700BF2DE9F001E1
:106ED00080460D46D1F1010138BF0021002808BFCE
:106EE00041F001014FF0000081BB95F8203013F014
:106EF000100F18BF002029D140F26463C1F20003D3
:106F00001B684FF000000BBB2C46DFF848C005F1B2
:106F10002007664620686168A268E3680FC604F12E
:106F20001004B446BC42F4D120686168A268ACE8A1
:106F3000070040F26460C1F20000C0F800804FF02A
:106F4000000303636D8C858680F83630BDE8F00160
:106F5000704700BF6806001010B14FF000020260D9
:106F6000704700BF2DE9F04F83B001920546894676
:106F7000D1F1010138BF0021002808BF41F0010113
:106F800000295FD1002A60D0066B836A92199A4269
:106F900004D99B1B019308BF00205BD02B68B3F87A
:106FA00012B0AF8EAFB9EF8C002E14BF4FF0FF3090
:106FB0000020002F4ED034464EB90AE0CBEB04043B
:106FC00028683946FFF70EFB0746002840D05C458D
:106FD000F4D20BF1FF3808EA06061FFA86F8019E84
:106FE000D5F800A050463946FFF70EFC4044C8EBE8
:106FF0000B04A4B2A64238BFB4B2DAF800301B6862
:1070000049462246984710B90199881B22E0A144BD
:10701000361B2B6B1B192B6344445C450DDB286826
:107020003946FFF7DFFA074628B94FF00003AB8671
:107030000199881B0EE04FF00008AF86002ECFD1DB
:10704000019807E04FF0FF3004E04FF0FF3001E01F
:107050004FF0FF3003B0BDE8F08F00BF2DE9F04FD7
:1070600083B0019205468A46D1F1010138BF002163
:10707000002808BF41F00101002940F09180002A5A
:1070800000F09180066B836A9E4288BF4FF0FF300C
:1070900000F294800068B0F812B0AF8E002F2DD1AE
:1070A000EF8C57B9002E40F081804FF00102FFF7BE
:1070B0002BFB0746E88400287BD02C6B4FF001089F
:1070C000D4B91BE0CBEB040428683946FFF78AFAF1
:1070D0000346D4F1010238BF0022002814BF002269
:1070E00002F001022AB1286839464246FFF70CFB3C
:1070F0000346002B60D01F465C45E3D20BF1FF38FE
:1071000008EA06081FFA88F8019EB9462F68384633
:107110004946FFF779FB4044C8EB0B04A4B2A642F2
:1071200038BFB4B23B689B6851462246984730B39B
:10713000A244361B2B6B1B192B6344445C451ADBA2
:1071400028684946FFF74EFA0346321C18BF012251
:10715000002814BF002202F0010232B1286849461B
:107160004FF00102FFF7D0FA03460BB9AB8606E0F9
:1071700099464FF00008A5F83490002EC6D12B6B2D
:10718000AC6AA34209D9AB62294651F8040BFFF758
:10719000E7FC10B92E6B361B2C63019B981B0DE08E
:1071A0004FF0FF300AE04FF0FF3007E04FF0FF30C4
:1071B00004E04FF0FF3001E04FF0FF3003B0BDE8D6
:1071C000F08F00BF2DE9F00384460D46D1F1010197
:1071D00038BF0021002808BF41F001014FF0000432
:1071E00000293ED195F8203013F0100F08BF00247D
:1071F00037D040F2FC53C1F200031B683BB140F2B0
:10720000FC53C1F200035B6B184C43BB03E040F23C
:10721000FC54C1F20004A84604F1040905F120075A
:107220004E46D8F80000D8F80410D8F80820D8F84E
:107230000C300FC608F11008B146B845F0D1D8F8A7
:107240000000D8F80410D8F80820A9E80700C4F80E
:1072500000C06D8C25864FF00003638601E04FF07F
:1072600000042046BDE8F003704700BF3006001060
:1072700010B14FF000020260704700BF38B1C28CFD
:1072800002864FF0000242864FF0010070474FF037
:10729000000070472DE9F04F8FB083460F46D1F1C3
:1072A000010138BF0021002808BF41F00101002979
:1072B00061D105686E8AB0F83080448EA64204D849
:1072C000FFF7DCFF4FF000005AE04FF000010C9197
:1072D0000D9138464FF02C0218F09CFA0B97B8F13C
:1072E000000F39D16E69AB69F61AB6B234E0C4EB5F
:1072F00006091FFA89F9B8F1000F02D1A869201810
:1073000004E028464146FFF77FFA00194FF00003DA
:107310000C932B68CDF800A00BAA01925F6803A91B
:107320004FF020024B46B84740B30C9BE418A4B280
:10733000A64215D828464146FFF754F9804640B981
:107340009DF8353083B95846FFF798FF4FF000009D
:1073500016E04FF0000403E046F6910AC0F2000A7E
:107360009DF83530002BC2D0ABF83080ABF83240FE
:107370009DF8350004E04FF0000001E04FF0000000
:107380000FB0BDE8F08F00BF2DE9F84F14468246DC
:107390008846D1F1010138BF0021002808BF41F023
:1073A000010100296AD198F80030D2F1010238BFFA
:1073B0000022002B08BF42F00102002A62D12F2BCD
:1073C00008BF08F1010820464FF000014FF02C02E1
:1073D00018F020FA4FF0100384F8203098F80030AD
:1073E000002B53D04FF02F0B50462146FFF7EAFEFB
:1073F000064600284ED04046594618F027FE28B1D0
:10740000C8EB0007FFB200F1010922E0404618F086
:10741000E1FFC7B208EB07091BE0204618F0DAFFCE
:107420000546B84215D1404621462A4619F002F8D1
:1074300078B93046FFF71CFF18F80530002B2DD027
:1074400094F8203013F0100F0AD14FF00000BDE87F
:10745000F88F30462146FFF71DFF0028DDD102E0FE
:10746000C8464FF000063046FFF702FF98F800309C
:10747000002BB9D14FF00100BDE8F88F4FF00000AC
:10748000BDE8F88F4FF00000BDE8F88F4FF0010025
:10749000BDE8F88F4FF00000BDE8F88F4FF0010015
:1074A000BDE8F88FF8B5144606460D46D1F1010146
:1074B00038BF0021002808BF41F00101002938D160
:1074C0002A78D4F1010338BF0023002A08BF43F013
:1074D0000103002B30D130462146FFF7DBFE58B1C7
:1074E0002846214618F02AFE0028F4D13046FFF73E
:1074F000C5FE4FF00000F8BD376820464FF0000190
:107500004FF02C0218F086F9204629464FF01F0252
:1075100018F0E4FF384631462246FFF797FAA0629A
:1075200068B138462146FFF71BFB003018BF012029
:10753000F8BD4FF00000F8BD4FF00000F8BD4FF06F
:107540000000F8BD2DE9F04184B005468846D1F130
:10755000010138BF0021002808BF41F001014FF0B0
:107560000000002932D1D8F828404FF00000002C4C
:107570002CD04FF00C064FF0E5072B681B68204617
:1075800001A932469847E0B18DF804702B689B68DA
:10759000204601A932469847B0B19DF80F300F2B15
:1075A00002D104F12004E8E7B8F822104FF00100FE
:1075B00029B12846FFF754F8003018BF0120C0B2A7
:1075C00004E04FF0000001E04FF0000004B0BDE81F
:1075D000F08100BF806A7047034640B1C0684FEA3F
:1075E0005000A0F102005B8A03FB00F070474FF0EF
:1075F000000070472DE9F04184B0174698469DF988
:10760000284005460E46D1F1010138BF002100286F
:1076100008BF41F001014FF00000002963D1032CA5
:10762000C8BF00205FDC002C0FDB4FEA041000F520
:10763000DF7069464FF01002A847002851D09DF82E
:1076400004304FF00000002B4DD040F29C63C1F29B
:1076500000031B7C4FF00000002B44D140F29C63E0
:10766000C1F200034FF0000103F10C0242F8041BC9
:1076700042F8041B42F8041B11601D605E609F60AD
:10768000C3F80C808C4224DB18469DF80430037448
:107690009DF809209DF80A304FEA034343EA02238C
:1076A0009DF8082013439DF80B2043EA02634361D1
:1076B0009DF80D209DF80E304FEA034343EA022364
:1076C0009DF80C2013439DF80F2043EA0263836169
:1076D00009E040F29C60C1F200004FF0FF03037428
:1076E00001E04FF0000004B0BDE8F08128B14FF098
:1076F000000202744FF0010070474FF00000704725
:1077000000B587B08DF8180006AB01934FF0010368
:1077100003934FF00000C4F2020001A94FF00002F1
:10772000FCF738F807B000BD00B587B006AB029390
:107730004FF0010303934FF00000C4F2020001A9CF
:107740004FF00002FCF726F89DF8180007B000BDC6
:1077500038B505460C46FFF7E7FF45F04000FFF758
:10776000CFFF4FEA1460FFF7CBFFC4F30740FFF7EA
:10777000C7FFC4F30720FFF7C3FFE0B2FFF7C0FF66
:1077800015B1082D0CD106E04FF09500FFF7B8FFBA
:107790004FF00A0409E04FF08700FFF7B1FFF7E769
:1077A0004FF0FF00FFF7ACFFF2E7FFF7BDFFFF2848
:1077B00004D104F1FF34E4B2002CF6D138BD00BF8F
:1077C00008B54FF00100FBF79DFE4FF0010008BD2A
:1077D00008B54FF00100FBF795FE4FF0000008BD23
:1077E00008B540F2C063C1F200031B78ABB940F2A8
:1077F000BC63C1F20003186840F2C461C1F2000129
:107800004FF4007200F0D0F950B140F2C063C1F201
:1078100000034FF00100187008BD4FF0010008BDD3
:107820004FF0000008BD00BF2DE9F84305460846AB
:107830001646002A5FD040F2BC67C1F2000740F252
:10784000C469C1F200094FEAC5514FEAD151C1EBF9
:107850000508C1F50074A4B2B44288BFB4B23B6855
:1078600098453CD0FFF7BCFF002848D04FF00100FE
:107870004FF000010246FBF725FE4FF00100FBF739
:1078800041FE4FF001004FF00001FBF72BFE4FF0DF
:1078900011004146FFF75CFFA0B14FF001004FF02F
:1078A00000010246FBF70EFE4FF00100FBF72AFE37
:1078B0004FF001004FF00001FBF714FE4FF0000005
:1078C000BDE8F883FFF730FFFE28FBD140F2C46427
:1078D000C1F20004FFF728FF04F8010BFAE749445E
:1078E000224617F0C1FE00192D19361BABD14FF0FF
:1078F0000100BDE8F8834FF00100BDE8F8834FF0C8
:107900000000BDE8F88300BF2DE9F84305461E4698
:10791000DDF82080DDF824900F461446D2F10102F4
:1079200038BF0022002908BF42F00102EAB9D8F1AD
:10793000010338BF0023A64238BF43F00103C3B997
:10794000B4421AD8284639462246FFF76DFFC0B127
:10795000384629464A46C047B8B12D19361BB442AD
:10796000F0D94FF00100BDE8F8834FF00000BDE80A
:10797000F8834FF00000BDE8F8834FF00100BDE848
:10798000F8834FF00000BDE8F8834FF00100BDE838
:10799000F88300BF70B586B04FF001004FF00001D2
:1079A0000A46FBF78FFD4FF001004FF000010A4639
:1079B000FBF788FD4FF001004FF000010246FBF796
:1079C00081FD4FF001004FF000010246FBF77AFD08
:1079D0004FF001004FF000010246FBF773FD4FF03E
:1079E00001004FF000010246FBF76CFD4FF0010073
:1079F0004FF000010246FBF765FD4FF00100FBF779
:107A000081FD4FF001004FF00001FBF76BFD4FF4DB
:107A1000006300934FF00004019402944FF02003A0
:107A2000039304944FF2E153C0F2050305932046FB
:107A3000C4F202006946FBF725FE40F2B863C1F2CA
:107A400000031C70FFF7BCFE002800F0A8804FF078
:107A50000A04FFF769FE04F1FF34E4B2002CF8D108
:107A60004FF001004FF000010246FBF72BFD4FF0F5
:107A70000100FBF747FD4FF001004FF00001FBF75D
:107A800031FD20462146FFF763FE0128F9D14FF072
:107A900037004FF00001FFF75BFE4FF029004FF079
:107AA0000001FFF755FE10F0040F01BF40F2B8636C
:107AB000C1F200031A7842F0010208BF1A7040F2C6
:107AC000B865C1F200054FF037064FF000042B787F
:107AD00013F0030F09D030462146FFF739FE4FF06F
:107AE00029002146FFF734FE04E04FF00100214653
:107AF000FFF72EFE10F0010FE9D14FF010004FF408
:107B00000071FFF725FE98B14FF001004FF0000122
:107B10000246FBF7D7FC4FF00100FBF7F3FC4FF0F8
:107B200001004FF00001FBF7DDFC4FF0000038E0F2
:107B30004FF001004FF000010246FBF7C3FC4FF08D
:107B40000100FBF7DFFC4FF001004FF00001FBF7F5
:107B5000C9FC4FF00000C4F202004BF62041C0F215
:107B6000BE01FBF751FD40F2BC63C1F200034FF0D0
:107B7000FF321A6040F2C063C1F200034FF001020D
:107B80001A704FF0000040F2C461C1F200014FF4DE
:107B90000072FFF749FE003018BF012001E04FF0EE
:107BA000000006B070BD00BF2DE9F04106468846D2
:107BB0001746FFF70DFE00287DD082E04FEAC6543D
:107BC0004FEAD454361BC4F50075ADB2AF4238BF8E
:107BD000BDB240F2BC63C1F200031B689E421DD0DF
:107BE000FFF7FEFD002870D0B5F5007F2CBF002305
:107BF0000123002C18BF43F0010353B1304640F27B
:107C0000C461C1F200014FF40072FFF70DFE0028BD
:107C10005FD040F2BC63C1F200031E6040F2C46357
:107C2000C1F2000398450DD0181941462A4617F0B5
:107C30001BFD40F2C063C1F200034FF000021A7056
:107C4000AF424AD04FF001004FF000010246FBF76F
:107C500039FC4FF00100FBF755FC4FF001004FF0ED
:107C60000001FBF73FFC4FF018003146FFF770FDB5
:107C7000A0B14FF001004FF000010246FBF722FCDB
:107C80004FF00100FBF73EFC4FF001004FF0000108
:107C9000FBF728FC4FF00000BDE8F0814FF0FE003C
:107CA000FFF72EFD40F2C464C1F2000414F8010B8A
:107CB000FFF726FDFAE7002F80D14FF00100BDE865
:107CC000F0814FF00000BDE8F0814FF00000BDE80A
:107CD000F0814FF00000BDE8F0814FF00100BDE8F9
:107CE000F08100BF2DE9F84F05461646DDF828B0B3
:107CF0000F469946D3F1010338BF0023002908BF7E
:107D000043F0010343BBD2F1010838BF4FF0000834
:107D1000C246002A0CBF434648F0010303B338466D
:107D200029465A46C84784B2F4B1B8F1000F01D1D0
:107D3000B4421DD8284639462246FFF735FFD8B150
:107D40002D19361B0CBF53464AF00103002BE6D118
:107D50004FF00100BDE8F88F4FF00000BDE8F88F4C
:107D60004FF00100BDE8F88F4FF00100BDE8F88F3B
:107D70004FF00000BDE8F88F4FF00000BDE8F88F2D
:107D800010B540F6C400C1F200004FF0000108F049
:107D900093FF40F6C800C1F200004FF0010108F067
:107DA0008BFF40F6CC00C1F200004FF0020108F05A
:107DB00083FF40F6D000C1F200004FF0030108F04D
:107DC0007BFF40F6D400C1F200004FF0040108F040
:107DD00073FF40F6D804C1F2000420464FF0FF01C3
:107DE00008F06AFF40F6DC00C1F2000021464FF0C7
:107DF000000209F073F910BD41F64013C1F200030F
:107E00005A881888801A80B2704700BF41F66813FC
:107E1000C1F200031870704741F63C13C1F2000331
:107E20004FF001021A70704741F66813C1F2000367
:107E30001878704741F64013C1F20003588880B2A9
:107E4000D0F1010038BF0020704700BF10B441F6E8
:107E50004013C1F20003598889B21A88914215D2A1
:107E600041F64013C1F200035C88A4B2998889B23C
:107E7000611891FBF2F402FB141292B299688854D3
:107E80005A8802F1010292B25A8006E041F640138C
:107E9000C1F200034FF001021A7310BC704700BF1B
:107EA00030B441F64013C1F200035B889BB24BB97A
:107EB00041F64013C1F200034FF001025A734FF034
:107EC00000001CE041F64013C1F20003998889B21A
:107ED0001A8891FBF2F002FB101188B29C68998815
:107EE00089B201F1010191FBF2F502FB151292B288
:107EF0009A805A8802F1FF3292B25A80205C30BCDC
:107F0000704700BF70B441F64013C1F200035B88B4
:107F10009BB24BB941F64013C1F200034FF001028E
:107F20005A734FF000031CE041F64013C1F2000306
:107F3000998889B21A8891FBF2F002FB101188B27D
:107F40009C68998889B201F1010191FBF2F502FB6D
:107F5000151292B29A805A8802F1FF3292B25A8078
:107F6000235C4FF0000063F3070041F64013C1F2B9
:107F700000035B889BB24BB941F64013C1F200038A
:107F80004FF001025A734FF000031CE041F640131A
:107F9000C1F20003998889B21A8891FBF2F402FBBE
:107FA00014118CB29D68998889B201F1010191FB8D
:107FB000F2F602FB161292B29A805A8802F1FF3250
:107FC00092B25A802B5D63F30F2000B270BC7047F1
:107FD00070B441F64013C1F200035B889BB24BB909
:107FE00041F64013C1F200034FF001025A734FF003
:107FF00000031CE041F64013C1F20003998889B2E6
:108000001A8891FBF2F002FB101188B29C689988E3
:1080100089B201F1010191FBF2F502FB151292B256
:108020009A805A8802F1FF3292B25A80235C4FF054
:10803000000063F3070041F64013C1F200035B88C0
:108040009BB24BB941F64013C1F200034FF001025D
:108050005A734FF000031CE041F64013C1F20003D5
:10806000998889B21A8891FBF2F402FB14118CB240
:108070009D68998889B201F1010191FBF2F602FB3A
:10808000161292B29A805A8802F1FF3292B25A8046
:108090002B5D63F30F2041F64013C1F200035B88B0
:1080A0009BB24BB941F64013C1F200034FF00102FD
:1080B0005A734FF000031CE041F64013C1F2000375
:1080C000998889B21A8891FBF2F402FB14118CB2E0
:1080D0009D68998889B201F1010191FBF2F602FBDA
:1080E000161292B29A805A8802F1FF3292B25A80E6
:1080F0002B5D63F3174041F64013C1F200035B8828
:108100009BB24BB941F64013C1F200034FF001029C
:108110005A734FF000031CE041F64013C1F2000314
:10812000998889B21A8891FBF2F402FB14118CB27F
:108130009D68998889B201F1010191FBF2F602FB79
:10814000161292B29A805A8802F1FF3292B25A8085
:108150002B5D63F31F6070BC704700BF2DE9F043D7
:108160008FB0044604F03AFB002840F08580237865
:108170008B2B3DD141F64013C1F200035B889BB2CB
:10818000182B79D941F69C30C1F2000003F01CF99C
:10819000FFF786FE40F6E603C1F200034FF001024E
:1081A0001A70FFF715FF0646FFF712FF0746FFF7A5
:1081B0000FFF8046FFF70CFF0546FFF709FF044657
:1081C000FFF706FF039041F65013C1F200031A684F
:1081D00002F101021A600095019404A831463A4662
:1081E000434605F07BF904A803A904F013FE43E01D
:1081F0008E2B41D141F64013C1F200035B889BB244
:10820000192B39D941F69C30C1F2000003F0DCF89B
:10821000FFF746FE40F6E603C1F200034FF001020D
:108220001A70FFF7D5FE0646FFF7D2FE0746FFF7A6
:10823000CFFE8046FFF7CCFE0546FFF7C9FE044699
:10824000FFF7C6FE0390FFF72BFE814641F6501361
:10825000C1F200031A6802F101021A60009501944C
:1082600009A831463A46434605F038F909A803A95A
:108270004FFA89F204F016FE0FB0BDE8F08300BF9C
:1082800041F64012C1F200024FF00001518091808E
:108290001173517341F65012C1F20002116040F6A1
:1082A000E402C1F20002117041F66812C1F200024C
:1082B000117040F6F802C1F20002116041F654124A
:1082C000C1F20002117040F6E602C1F20002117024
:1082D000704700BF41F65013C1F2000318687047A1
:1082E00041F65013C1F200034FF000021A607047CC
:1082F00038B5FFF7D5FD0546FFF7D2FD0446FFF779
:10830000CFFDA4F103041C2C00F2D180DFE814F0AF
:108310001D00A700AC00BB00C000B100B6009D006E
:10832000A20056006700C500CA00CF00CF00CF00F2
:10833000CF00CF00CF00CF004C00CF00CF00CF0048
:10834000CF00CF00CF00CF007400624BA3F1E00458
:10835000012D08BF1C46FFF7D5FD014604F128009A
:1083600008F0B6F95C4808F045FA002800F0A28051
:10837000594808F053FA002840F09C8004F1280086
:1083800008F04CFA002840F0958040F6E403C1F272
:1083900000034FF001021A7004F12800114608F0A2
:1083A0005BFA4FF0010038BDFFF73EFD80F00100A1
:1083B000C0B201F0C3FD4FF0010038BD454BA3F141
:1083C000E002012D14BF15461D46FFF769FD00F0C0
:1083D0000101284601F054FB4FF0010038BDFFF7C2
:1083E0005FFD00F0010141F69C30C1F2000003F096
:1083F00095FC4FF0010038BD41F69C34C1F20004F9
:1084000020464FF0010103F085FCFFF77BFD01469C
:1084100004F50375284608F05BF9284608F0FEF9D4
:1084200080F00100C5B240F6E403C1F200031D7004
:1084300004F15000294608F00FFA04F59870294617
:1084400008F00AFA4FF0010038BDFFF729FD4FF0A0
:10845000010038BDFFF724FD4FF0010038BDFFF7E4
:108460001FFD4FF0010038BDFFF71AFD4FF001006E
:1084700038BDFFF715FD4FF0010038BDFFF710FDC7
:108480004FF0010038BDFFF7A3FD4FF0010038BDEC
:10849000FFF79EFD4FF0010038BDFFF701FD4FF0E3
:1084A000010038BDFFF7FCFC4FF0010038BD4FF074
:1084B000000038BD074BA3F1E000012D08BF1846AE
:1084C00000F128004FF0000108F0C6F94FF001005C
:1084D00038BD00BFA41C0010A81D00102DE9F041FC
:1084E00096B005F097FCA0B963E0618889B2A288D4
:1084F00092B28A1892FBF3F103FB11239BB2A2689C
:10850000D054638803F101039BB263800BE02673B0
:1085100009E041F64014C1F2000440F6F805C1F24A
:1085200000054FF0010663889BB222889A4200F052
:10853000888505F0EBFC002800F083852B6803F1AB
:1085400001032B6005F0E8FC628892B223889A420E
:10855000CBD3DCE705F02EFC40F6F803C1F20003B4
:108560001B68984240F2728541F65413C1F2000331
:108570001B78002B40F06A8541F69C30C1F2000068
:1085800046F20831C0F202014FF0000202F0E0FFB3
:1085900041F65413C1F200034FF001021A7008E0D3
:1085A00041F64013C1F200035B889BB20BB905F0A2
:1085B000BDFC07F035FCA0B935E0618889B2A2881E
:1085C00092B28A1892FBF3F103FB11239BB2A268CB
:1085D000D054638803F101039BB2638007E02573E5
:1085E00005E041F64014C1F200044FF00105638834
:1085F0009BB222889A4200F0308507F01FFC0028C9
:1086000000F02B8507F02AFC628892B223889A42F8
:10861000D3D3E4E741F64013C1F200035B889BB279
:108620000BB907F037FC40F6E403C1F200031B78F6
:10863000B3B1B24808F0AAF890B1B14C20464FF05F
:10864000000108F009F904F1E0004FF0000108F022
:1086500003F940F6E403C1F200034FF000021A7080
:1086600041F66813C1F200031B78002B40F0FC8434
:1086700041F63C13C1F200031B78002B40F0F48458
:1086800040F6E603C1F200031B78032B1BD105F073
:108690004FFF38B940F6E603C1F200034FF0000285
:1086A0001A7060E041F62C10C1F2000009F0CAF81F
:1086B00048B104F0A9FC40F6E603C1F200034FF014
:1086C00000021A704FE040F6E603C1F200031B7887
:1086D000012B48D105F02CFF38B940F6E603C1F272
:1086E00000034FF000021A70A7E041F64013C1F2F8
:1086F00000035B889BB2002B35D041F69C30C1F261
:10870000000002F061FE41F64013C1F200039988B7
:1087100089B21A8891FBF2F002FB101292B29B68A8
:108720009B5C8DF81F308E2B14BF002201228B2BF7
:1087300008BF42F0010242B14FF0640000F078FE41
:108740000DF11F00FFF70AFD0DE0892B0BD141F65B
:108750004013C1F200035B889BB2012B03D9FFF7E2
:108760009FFBFFF79DFB40F6E603C1F200031B7879
:10877000022B0ED141F65810C1F2000009F062F848
:1087800038B140F6E603C1F200034FF000021A7060
:108790008DE040F6E603C1F200031B78042B4CD1B8
:1087A00041F60010C1F2000009F04CF898B141F612
:1087B0009C30C1F2000046F25C31C0F202014FF081
:1087C000000202F0C5FE40F6E603C1F200034FF0DE
:1087D00000021A706BE040F6E503C1F2000318785E
:1087E000484BA3F1E002012814BF1046184600F1DF
:1087F000280007F0FFFF38B940F6E603C1F2000396
:108800004FF000021A7052E040F6E503C1F2000397
:1088100018783C4BA3F1E002012814BF104618461B
:1088200000F1280007F0B2FF38B140F6E603C1F2CC
:1088300000034FF000021A7039E040F6E603C1F27F
:1088400000031B78052B32D141F60010C1F2000065
:1088500008F0F8FF98B141F69C30C1F2000046F2F2
:108860009431C0F202014FF0000202F071FE40F6B6
:10887000E603C1F200034FF000021A7044E01F4803
:1088800007F0B8FF38B940F6E603C1F200034FF035
:1088900000021A7038E0194807F078FF38B140F646
:1088A000E603C1F200034FF000021A702CE040F61C
:1088B000E603C1F200031B78062B25D141F61C10FC
:1088C000C1F2000008F0BEFFF0B141F66913C1F239
:1088D00000031B7813F0020F08D041F69C30C1F260
:1088E00000004FF0000102F009FF0DE040F6E60342
:1088F000C1F200034FF000021A700DE0A81D001035
:10890000EC1B0010A41C001040F6E603C1F20003AB
:108910001B78002B40F0808341F64013C1F2000326
:108920005B889BB2002B00F0778341F69C30C1F24C
:10893000000002F049FD41F64013C1F2000399889E
:1089400089B21A88986891FBF2F302FB13139BB269
:10895000C35C8DF81F308E2B14BF002101218B2B9F
:1089600008BF41F0010121B10DF11F00FFF7F6FB37
:1089700052E3862B1CD141F64013C1F200035B8801
:108980009BB2012B40F24883FFF78AFAFFF788FA7F
:1089900040F6E503C1F20003187041F65013C1F22E
:1089A00000031A6802F101021A6004F01BFB33E3B2
:1089B000892B27D141F64013C1F200035B889BB29B
:1089C000012B40F22983FFF76BFAFFF769FA05469E
:1089D00041F65013C1F200031A6802F101021A6055
:1089E000C0F3C0164FF0000445FA04F313F0010F72
:1089F00003D0E0B2314606F0B1FC04F10104042CCE
:108A0000F2D109E38C2B2CD141F64013C1F20003C3
:108A10005B889BB2142B40F2FF82FFF741FAFFF70D
:108A2000D7FA0446FFF7D4FA0646FFF7D1FA07460D
:108A3000FFF7CEFA0546FFF7CBFA41F65013C1F225
:108A400000031A6802F101021A600095019008A85B
:108A5000214632463B4604F041FD08A804F06AFC7A
:108A6000DAE2852B26D141F64013C1F200035B8880
:108A70009BB2042B40F2D08240F6E603C1F2000321
:108A80004FF002021A70FFF70BFAFFF7A1FA41F656
:108A90005013C1F200031A6802F101021A604FF488
:108AA0007A7101FB00F141F65810C1F2000008F0A4
:108AB000B5FEB1E2942B4FD141F64013C1F2000351
:108AC0005B889BB2042B40F2A782FFF7E9F9FFF71E
:108AD000E7F941F65513C1F200031870FFF712FAD7
